{
  "_format": "hh-sol-artifact-1",
  "contractName": "NFT",
  "sourceName": "contracts/NFT.sol",
  "abi": [
    {
      "inputs": [],
      "stateMutability": "nonpayable",
      "type": "constructor"
    },
    {
      "anonymous": false,
      "inputs": [
        {
          "indexed": true,
          "internalType": "address",
          "name": "owner",
          "type": "address"
        },
        {
          "indexed": true,
          "internalType": "address",
          "name": "approved",
          "type": "address"
        },
        {
          "indexed": true,
          "internalType": "uint256",
          "name": "tokenId",
          "type": "uint256"
        }
      ],
      "name": "Approval",
      "type": "event"
    },
    {
      "anonymous": false,
      "inputs": [
        {
          "indexed": true,
          "internalType": "address",
          "name": "owner",
          "type": "address"
        },
        {
          "indexed": true,
          "internalType": "address",
          "name": "operator",
          "type": "address"
        },
        {
          "indexed": false,
          "internalType": "bool",
          "name": "approved",
          "type": "bool"
        }
      ],
      "name": "ApprovalForAll",
      "type": "event"
    },
    {
      "anonymous": false,
      "inputs": [
        {
          "indexed": true,
          "internalType": "address",
          "name": "previousOwner",
          "type": "address"
        },
        {
          "indexed": true,
          "internalType": "address",
          "name": "newOwner",
          "type": "address"
        }
      ],
      "name": "OwnershipTransferred",
      "type": "event"
    },
    {
      "anonymous": false,
      "inputs": [
        {
          "indexed": true,
          "internalType": "address",
          "name": "from",
          "type": "address"
        },
        {
          "indexed": true,
          "internalType": "address",
          "name": "to",
          "type": "address"
        },
        {
          "indexed": true,
          "internalType": "uint256",
          "name": "tokenId",
          "type": "uint256"
        }
      ],
      "name": "Transfer",
      "type": "event"
    },
    {
      "inputs": [],
      "name": "MAX_APES",
      "outputs": [
        {
          "internalType": "uint256",
          "name": "",
          "type": "uint256"
        }
      ],
      "stateMutability": "view",
      "type": "function"
    },
    {
      "inputs": [
        {
          "internalType": "address",
          "name": "to",
          "type": "address"
        },
        {
          "internalType": "uint256",
          "name": "tokenId",
          "type": "uint256"
        }
      ],
      "name": "approve",
      "outputs": [],
      "stateMutability": "nonpayable",
      "type": "function"
    },
    {
      "inputs": [],
      "name": "astroPrice",
      "outputs": [
        {
          "internalType": "uint256",
          "name": "",
          "type": "uint256"
        }
      ],
      "stateMutability": "view",
      "type": "function"
    },
    {
      "inputs": [
        {
          "internalType": "address",
          "name": "owner",
          "type": "address"
        }
      ],
      "name": "balanceOf",
      "outputs": [
        {
          "internalType": "uint256",
          "name": "",
          "type": "uint256"
        }
      ],
      "stateMutability": "view",
      "type": "function"
    },
    {
      "inputs": [],
      "name": "baseURI",
      "outputs": [
        {
          "internalType": "string",
          "name": "",
          "type": "string"
        }
      ],
      "stateMutability": "view",
      "type": "function"
    },
    {
      "inputs": [
        {
          "internalType": "uint256",
          "name": "tokenId",
          "type": "uint256"
        }
      ],
      "name": "getApproved",
      "outputs": [
        {
          "internalType": "address",
          "name": "",
          "type": "address"
        }
      ],
      "stateMutability": "view",
      "type": "function"
    },
    {
      "inputs": [
        {
          "internalType": "address",
          "name": "owner",
          "type": "address"
        },
        {
          "internalType": "address",
          "name": "operator",
          "type": "address"
        }
      ],
      "name": "isApprovedForAll",
      "outputs": [
        {
          "internalType": "bool",
          "name": "",
          "type": "bool"
        }
      ],
      "stateMutability": "view",
      "type": "function"
    },
    {
      "inputs": [],
      "name": "maxAstroPurchase",
      "outputs": [
        {
          "internalType": "uint256",
          "name": "",
          "type": "uint256"
        }
      ],
      "stateMutability": "view",
      "type": "function"
    },
    {
      "inputs": [],
      "name": "mint",
      "outputs": [],
      "stateMutability": "nonpayable",
      "type": "function"
    },
    {
      "inputs": [
        {
          "internalType": "string",
          "name": "uri",
          "type": "string"
        }
      ],
      "name": "mint",
      "outputs": [],
      "stateMutability": "nonpayable",
      "type": "function"
    },
    {
      "inputs": [
        {
          "internalType": "uint256",
          "name": "numberOfTokens",
          "type": "uint256"
        }
      ],
      "name": "mintAstro",
      "outputs": [],
      "stateMutability": "payable",
      "type": "function"
    },
    {
      "inputs": [],
      "name": "name",
      "outputs": [
        {
          "internalType": "string",
          "name": "",
          "type": "string"
        }
      ],
      "stateMutability": "view",
      "type": "function"
    },
    {
      "inputs": [],
      "name": "owner",
      "outputs": [
        {
          "internalType": "address",
          "name": "",
          "type": "address"
        }
      ],
      "stateMutability": "view",
      "type": "function"
    },
    {
      "inputs": [
        {
          "internalType": "uint256",
          "name": "tokenId",
          "type": "uint256"
        }
      ],
      "name": "ownerOf",
      "outputs": [
        {
          "internalType": "address",
          "name": "",
          "type": "address"
        }
      ],
      "stateMutability": "view",
      "type": "function"
    },
    {
      "inputs": [],
      "name": "renounceOwnership",
      "outputs": [],
      "stateMutability": "nonpayable",
      "type": "function"
    },
    {
      "inputs": [
        {
          "internalType": "address",
          "name": "from",
          "type": "address"
        },
        {
          "internalType": "address",
          "name": "to",
          "type": "address"
        },
        {
          "internalType": "uint256",
          "name": "tokenId",
          "type": "uint256"
        }
      ],
      "name": "safeTransferFrom",
      "outputs": [],
      "stateMutability": "nonpayable",
      "type": "function"
    },
    {
      "inputs": [
        {
          "internalType": "address",
          "name": "from",
          "type": "address"
        },
        {
          "internalType": "address",
          "name": "to",
          "type": "address"
        },
        {
          "internalType": "uint256",
          "name": "tokenId",
          "type": "uint256"
        },
        {
          "internalType": "bytes",
          "name": "_data",
          "type": "bytes"
        }
      ],
      "name": "safeTransferFrom",
      "outputs": [],
      "stateMutability": "nonpayable",
      "type": "function"
    },
    {
      "inputs": [
        {
          "internalType": "address",
          "name": "operator",
          "type": "address"
        },
        {
          "internalType": "bool",
          "name": "approved",
          "type": "bool"
        }
      ],
      "name": "setApprovalForAll",
      "outputs": [],
      "stateMutability": "nonpayable",
      "type": "function"
    },
    {
      "inputs": [
        {
          "internalType": "bytes4",
          "name": "interfaceId",
          "type": "bytes4"
        }
      ],
      "name": "supportsInterface",
      "outputs": [
        {
          "internalType": "bool",
          "name": "",
          "type": "bool"
        }
      ],
      "stateMutability": "view",
      "type": "function"
    },
    {
      "inputs": [],
      "name": "symbol",
      "outputs": [
        {
          "internalType": "string",
          "name": "",
          "type": "string"
        }
      ],
      "stateMutability": "view",
      "type": "function"
    },
    {
      "inputs": [
        {
          "internalType": "uint256",
          "name": "index",
          "type": "uint256"
        }
      ],
      "name": "tokenByIndex",
      "outputs": [
        {
          "internalType": "uint256",
          "name": "",
          "type": "uint256"
        }
      ],
      "stateMutability": "view",
      "type": "function"
    },
    {
      "inputs": [
        {
          "internalType": "address",
          "name": "owner",
          "type": "address"
        },
        {
          "internalType": "uint256",
          "name": "index",
          "type": "uint256"
        }
      ],
      "name": "tokenOfOwnerByIndex",
      "outputs": [
        {
          "internalType": "uint256",
          "name": "",
          "type": "uint256"
        }
      ],
      "stateMutability": "view",
      "type": "function"
    },
    {
      "inputs": [
        {
          "internalType": "uint256",
          "name": "tokenId",
          "type": "uint256"
        }
      ],
      "name": "tokenURI",
      "outputs": [
        {
          "internalType": "string",
          "name": "",
          "type": "string"
        }
      ],
      "stateMutability": "view",
      "type": "function"
    },
    {
      "inputs": [],
      "name": "totalSupply",
      "outputs": [
        {
          "internalType": "uint256",
          "name": "",
          "type": "uint256"
        }
      ],
      "stateMutability": "view",
      "type": "function"
    },
    {
      "inputs": [
        {
          "internalType": "address",
          "name": "from",
          "type": "address"
        },
        {
          "internalType": "address",
          "name": "to",
          "type": "address"
        },
        {
          "internalType": "uint256",
          "name": "tokenId",
          "type": "uint256"
        }
      ],
      "name": "transferFrom",
      "outputs": [],
      "stateMutability": "nonpayable",
      "type": "function"
    },
    {
      "inputs": [
        {
          "internalType": "address",
          "name": "newOwner",
          "type": "address"
        }
      ],
      "name": "transferOwnership",
      "outputs": [],
      "stateMutability": "nonpayable",
      "type": "function"
    },
    {
      "inputs": [],
      "name": "withdraw",
      "outputs": [],
      "stateMutability": "nonpayable",
      "type": "function"
    }
  ],
  "bytecode": "0x6080604052612710600b553480156200001757600080fd5b506040518060400160405280600881526020017f4e756465764e46540000000000000000000000000000000000000000000000008152506040518060400160405280600581526020017f4e444e46540000000000000000000000000000000000000000000000000000008152506200009c6301ffc9a760e01b620001cf60201b60201c565b8160069080519060200190620000b4929190620002e0565b508060079080519060200190620000cd929190620002e0565b50620000e66380ac58cd60e01b620001cf60201b60201c565b620000fe635b5e139f60e01b620001cf60201b60201c565b6200011663780e9d6360e01b620001cf60201b60201c565b505060006200012a620002d860201b60201c565b905080600a60006101000a81548173ffffffffffffffffffffffffffffffffffffffff021916908373ffffffffffffffffffffffffffffffffffffffff1602179055508073ffffffffffffffffffffffffffffffffffffffff16600073ffffffffffffffffffffffffffffffffffffffff167f8be0079c531659141344cd1fd0a4f28419497f9722a3daafe3b4186f6b6457e060405160405180910390a35062000386565b63ffffffff60e01b817bffffffffffffffffffffffffffffffffffffffffffffffffffffffff191614156200026c576040517f08c379a000000000000000000000000000000000000000000000000000000000815260040180806020018281038252601c8152602001807f4552433136353a20696e76616c696420696e746572666163652069640000000081525060200191505060405180910390fd5b6001600080837bffffffffffffffffffffffffffffffffffffffffffffffffffffffff19167bffffffffffffffffffffffffffffffffffffffffffffffffffffffff1916815260200190815260200160002060006101000a81548160ff02191690831515021790555050565b600033905090565b828054600181600116156101000203166002900490600052602060002090601f016020900481019282601f106200032357805160ff191683800117855562000354565b8280016001018555821562000354579182015b828111156200035357825182559160200191906001019062000336565b5b50905062000363919062000367565b5090565b5b808211156200038257600081600090555060010162000368565b5090565b6136d880620003966000396000f3fe60806040526004361061019c5760003560e01c80636c0360eb116100ec578063addade171161008a578063c87b56dd11610064578063c87b56dd146109ce578063d85d3d2714610a82578063e985e9c514610b4a578063f2fde38b14610bd15761019c565b8063addade1714610863578063b88d4fde14610891578063bb8a16bd146109a35761019c565b80638da5cb5b116100c65780638da5cb5b1461070a57806395d89b411461074b578063a22cb465146107db578063a4e0b4fe146108385761019c565b80636c0360eb146105fe57806370a082311461068e578063715018a6146106f35761019c565b806318160ddd116101595780633ccfd60b116101335780633ccfd60b146104b857806342842e0e146104cf5780634f6ccce71461054a5780636352211e146105995761019c565b806318160ddd146103a357806323b872dd146103ce5780632f745c59146104495761019c565b806301ffc9a7146101a157806306fdde0314610211578063081812fc146102a1578063095ea7b3146103065780631249c58b1461036157806314bbaabd14610378575b600080fd5b3480156101ad57600080fd5b506101f9600480360360208110156101c457600080fd5b8101908080357bffffffffffffffffffffffffffffffffffffffffffffffffffffffff19169060200190929190505050610c22565b60405180821515815260200191505060405180910390f35b34801561021d57600080fd5b50610226610c89565b6040518080602001828103825283818151815260200191508051906020019080838360005b8381101561026657808201518184015260208101905061024b565b50505050905090810190601f1680156102935780820380516001836020036101000a031916815260200191505b509250505060405180910390f35b3480156102ad57600080fd5b506102da600480360360208110156102c457600080fd5b8101908080359060200190929190505050610d2b565b604051808273ffffffffffffffffffffffffffffffffffffffff16815260200191505060405180910390f35b34801561031257600080fd5b5061035f6004803603604081101561032957600080fd5b81019080803573ffffffffffffffffffffffffffffffffffffffff16906020019092919080359060200190929190505050610dc6565b005b34801561036d57600080fd5b50610376610f0a565b005b34801561038457600080fd5b5061038d610f23565b6040518082815260200191505060405180910390f35b3480156103af57600080fd5b506103b8610f2e565b6040518082815260200191505060405180910390f35b3480156103da57600080fd5b50610447600480360360608110156103f157600080fd5b81019080803573ffffffffffffffffffffffffffffffffffffffff169060200190929190803573ffffffffffffffffffffffffffffffffffffffff16906020019092919080359060200190929190505050610f3f565b005b34801561045557600080fd5b506104a26004803603604081101561046c57600080fd5b81019080803573ffffffffffffffffffffffffffffffffffffffff16906020019092919080359060200190929190505050610fb5565b6040518082815260200191505060405180910390f35b3480156104c457600080fd5b506104cd611010565b005b3480156104db57600080fd5b50610548600480360360608110156104f257600080fd5b81019080803573ffffffffffffffffffffffffffffffffffffffff169060200190929190803573ffffffffffffffffffffffffffffffffffffffff1690602001909291908035906020019092919050505061110e565b005b34801561055657600080fd5b506105836004803603602081101561056d57600080fd5b810190808035906020019092919050505061112e565b6040518082815260200191505060405180910390f35b3480156105a557600080fd5b506105d2600480360360208110156105bc57600080fd5b8101908080359060200190929190505050611151565b604051808273ffffffffffffffffffffffffffffffffffffffff16815260200191505060405180910390f35b34801561060a57600080fd5b50610613611188565b6040518080602001828103825283818151815260200191508051906020019080838360005b83811015610653578082015181840152602081019050610638565b50505050905090810190601f1680156106805780820380516001836020036101000a031916815260200191505b509250505060405180910390f35b34801561069a57600080fd5b506106dd600480360360208110156106b157600080fd5b81019080803573ffffffffffffffffffffffffffffffffffffffff16906020019092919050505061122a565b6040518082815260200191505060405180910390f35b3480156106ff57600080fd5b506107086112ff565b005b34801561071657600080fd5b5061071f61146f565b604051808273ffffffffffffffffffffffffffffffffffffffff16815260200191505060405180910390f35b34801561075757600080fd5b50610760611499565b6040518080602001828103825283818151815260200191508051906020019080838360005b838110156107a0578082015181840152602081019050610785565b50505050905090810190601f1680156107cd5780820380516001836020036101000a031916815260200191505b509250505060405180910390f35b3480156107e757600080fd5b50610836600480360360408110156107fe57600080fd5b81019080803573ffffffffffffffffffffffffffffffffffffffff16906020019092919080351515906020019092919050505061153b565b005b34801561084457600080fd5b5061084d6116f1565b6040518082815260200191505060405180910390f35b61088f6004803603602081101561087957600080fd5b81019080803590602001909291905050506116f6565b005b34801561089d57600080fd5b506109a1600480360360808110156108b457600080fd5b81019080803573ffffffffffffffffffffffffffffffffffffffff169060200190929190803573ffffffffffffffffffffffffffffffffffffffff169060200190929190803590602001909291908035906020019064010000000081111561091b57600080fd5b82018360208201111561092d57600080fd5b8035906020019184600183028401116401000000008311171561094f57600080fd5b91908080601f016020809104026020016040519081016040528093929190818152602001838380828437600081840152601f19601f820116905080830192505050505050509192919290505050611898565b005b3480156109af57600080fd5b506109b8611910565b6040518082815260200191505060405180910390f35b3480156109da57600080fd5b50610a07600480360360208110156109f157600080fd5b8101908080359060200190929190505050611916565b6040518080602001828103825283818151815260200191508051906020019080838360005b83811015610a47578082015181840152602081019050610a2c565b50505050905090810190601f168015610a745780820380516001836020036101000a031916815260200191505b509250505060405180910390f35b348015610a8e57600080fd5b50610b4860048036036020811015610aa557600080fd5b8101908080359060200190640100000000811115610ac257600080fd5b820183602082011115610ad457600080fd5b80359060200191846001830284011164010000000083111715610af657600080fd5b91908080601f016020809104026020016040519081016040528093929190818152602001838380828437600081840152601f19601f820116905080830192505050505050509192919290505050611be7565b005b348015610b5657600080fd5b50610bb960048036036040811015610b6d57600080fd5b81019080803573ffffffffffffffffffffffffffffffffffffffff169060200190929190803573ffffffffffffffffffffffffffffffffffffffff169060200190929190505050611c0b565b60405180821515815260200191505060405180910390f35b348015610bdd57600080fd5b50610c2060048036036020811015610bf457600080fd5b81019080803573ffffffffffffffffffffffffffffffffffffffff169060200190929190505050611c9f565b005b6000806000837bffffffffffffffffffffffffffffffffffffffffffffffffffffffff19167bffffffffffffffffffffffffffffffffffffffffffffffffffffffff1916815260200190815260200160002060009054906101000a900460ff169050919050565b606060068054600181600116156101000203166002900480601f016020809104026020016040519081016040528092919081815260200182805460018160011615610100020316600290048015610d215780601f10610cf657610100808354040283529160200191610d21565b820191906000526020600020905b815481529060010190602001808311610d0457829003601f168201915b5050505050905090565b6000610d3682611e94565b610d8b576040517f08c379a000000000000000000000000000000000000000000000000000000000815260040180806020018281038252602c815260200180613578602c913960400191505060405180910390fd5b6004600083815260200190815260200160002060009054906101000a900473ffffffffffffffffffffffffffffffffffffffff169050919050565b6000610dd182611151565b90508073ffffffffffffffffffffffffffffffffffffffff168373ffffffffffffffffffffffffffffffffffffffff161415610e58576040517f08c379a00000000000000000000000000000000000000000000000000000000081526004018080602001828103825260218152602001806136286021913960400191505060405180910390fd5b8073ffffffffffffffffffffffffffffffffffffffff16610e77611eb1565b73ffffffffffffffffffffffffffffffffffffffff161480610ea65750610ea581610ea0611eb1565b611c0b565b5b610efb576040517f08c379a00000000000000000000000000000000000000000000000000000000081526004018080602001828103825260388152602001806134aa6038913960400191505060405180910390fd5b610f058383611eb9565b505050565b6000610f14610f2e565b9050610f203382611f72565b50565b66f8b0a10e47000081565b6000610f3a6002611f90565b905090565b610f50610f4a611eb1565b82611fa5565b610fa5576040517f08c379a00000000000000000000000000000000000000000000000000000000081526004018080602001828103825260318152602001806136496031913960400191505060405180910390fd5b610fb0838383612099565b505050565b600061100882600160008673ffffffffffffffffffffffffffffffffffffffff1673ffffffffffffffffffffffffffffffffffffffff1681526020019081526020016000206122dc90919063ffffffff16565b905092915050565b611018611eb1565b73ffffffffffffffffffffffffffffffffffffffff1661103661146f565b73ffffffffffffffffffffffffffffffffffffffff16146110bf576040517f08c379a00000000000000000000000000000000000000000000000000000000081526004018080602001828103825260208152602001807f4f776e61626c653a2063616c6c6572206973206e6f7420746865206f776e657281525060200191505060405180910390fd5b60004790503373ffffffffffffffffffffffffffffffffffffffff166108fc829081150290604051600060405180830381858888f1935050505015801561110a573d6000803e3d6000fd5b5050565b61112983838360405180602001604052806000815250611898565b505050565b6000806111458360026122f690919063ffffffff16565b50905080915050919050565b60006111818260405180606001604052806029815260200161350c6029913960026123229092919063ffffffff16565b9050919050565b606060098054600181600116156101000203166002900480601f0160208091040260200160405190810160405280929190818152602001828054600181600116156101000203166002900480156112205780601f106111f557610100808354040283529160200191611220565b820191906000526020600020905b81548152906001019060200180831161120357829003601f168201915b5050505050905090565b60008073ffffffffffffffffffffffffffffffffffffffff168273ffffffffffffffffffffffffffffffffffffffff1614156112b1576040517f08c379a000000000000000000000000000000000000000000000000000000000815260040180806020018281038252602a8152602001806134e2602a913960400191505060405180910390fd5b6112f8600160008473ffffffffffffffffffffffffffffffffffffffff1673ffffffffffffffffffffffffffffffffffffffff168152602001908152602001600020612341565b9050919050565b611307611eb1565b73ffffffffffffffffffffffffffffffffffffffff1661132561146f565b73ffffffffffffffffffffffffffffffffffffffff16146113ae576040517f08c379a00000000000000000000000000000000000000000000000000000000081526004018080602001828103825260208152602001807f4f776e61626c653a2063616c6c6572206973206e6f7420746865206f776e657281525060200191505060405180910390fd5b600073ffffffffffffffffffffffffffffffffffffffff16600a60009054906101000a900473ffffffffffffffffffffffffffffffffffffffff1673ffffffffffffffffffffffffffffffffffffffff167f8be0079c531659141344cd1fd0a4f28419497f9722a3daafe3b4186f6b6457e060405160405180910390a36000600a60006101000a81548173ffffffffffffffffffffffffffffffffffffffff021916908373ffffffffffffffffffffffffffffffffffffffff160217905550565b6000600a60009054906101000a900473ffffffffffffffffffffffffffffffffffffffff16905090565b606060078054600181600116156101000203166002900480601f0160208091040260200160405190810160405280929190818152602001828054600181600116156101000203166002900480156115315780601f1061150657610100808354040283529160200191611531565b820191906000526020600020905b81548152906001019060200180831161151457829003601f168201915b5050505050905090565b611543611eb1565b73ffffffffffffffffffffffffffffffffffffffff168273ffffffffffffffffffffffffffffffffffffffff1614156115e4576040517f08c379a00000000000000000000000000000000000000000000000000000000081526004018080602001828103825260198152602001807f4552433732313a20617070726f766520746f2063616c6c65720000000000000081525060200191505060405180910390fd5b80600560006115f1611eb1565b73ffffffffffffffffffffffffffffffffffffffff1673ffffffffffffffffffffffffffffffffffffffff16815260200190815260200160002060008473ffffffffffffffffffffffffffffffffffffffff1673ffffffffffffffffffffffffffffffffffffffff16815260200190815260200160002060006101000a81548160ff0219169083151502179055508173ffffffffffffffffffffffffffffffffffffffff1661169e611eb1565b73ffffffffffffffffffffffffffffffffffffffff167f17307eab39ab6107e8899845ad3d59bd9653f200f220920489ca2b5937696c318360405180821515815260200191505060405180910390a35050565b601e81565b601e811115611750576040517f08c379a00000000000000000000000000000000000000000000000000000000081526004018080602001828103825260218152602001806134896021913960400191505060405180910390fd5b600b5461176d8261175f610f2e565b61235690919063ffffffff16565b11156117c4576040517f08c379a000000000000000000000000000000000000000000000000000000000815260040180806020018281038252602981526020018061367a6029913960400191505060405180910390fd5b346117df8266f8b0a10e4700006123de90919063ffffffff16565b1115611853576040517f08c379a000000000000000000000000000000000000000000000000000000000815260040180806020018281038252601f8152602001807f45746865722076616c75652073656e74206973206e6f7420636f72726563740081525060200191505060405180910390fd5b60005b81811015611894576000611868610f2e565b9050600b54611875610f2e565b1015611886576118853382611f72565b5b508080600101915050611856565b5050565b6118a96118a3611eb1565b83611fa5565b6118fe576040517f08c379a00000000000000000000000000000000000000000000000000000000081526004018080602001828103825260318152602001806136496031913960400191505060405180910390fd5b61190a84848484612464565b50505050565b600b5481565b606061192182611e94565b611976576040517f08c379a000000000000000000000000000000000000000000000000000000000815260040180806020018281038252602f8152602001806135f9602f913960400191505060405180910390fd5b6060600860008481526020019081526020016000208054600181600116156101000203166002900480601f016020809104026020016040519081016040528092919081815260200182805460018160011615610100020316600290048015611a1f5780601f106119f457610100808354040283529160200191611a1f565b820191906000526020600020905b815481529060010190602001808311611a0257829003601f168201915b505050505090506060611a30611188565b9050600081511415611a46578192505050611be2565b600082511115611b175780826040516020018083805190602001908083835b60208310611a885780518252602082019150602081019050602083039250611a65565b6001836020036101000a03801982511681845116808217855250505050505090500182805190602001908083835b60208310611ad95780518252602082019150602081019050602083039250611ab6565b6001836020036101000a0380198251168184511680821785525050505050509050019250505060405160208183030381529060405292505050611be2565b80611b21856124d6565b6040516020018083805190602001908083835b60208310611b575780518252602082019150602081019050602083039250611b34565b6001836020036101000a03801982511681845116808217855250505050505090500182805190602001908083835b60208310611ba85780518252602082019150602081019050602083039250611b85565b6001836020036101000a03801982511681845116808217855250505050505090500192505050604051602081830303815290604052925050505b919050565b6000611bf1610f2e565b9050611bfd3382611f72565b611c07818361261d565b5050565b6000600560008473ffffffffffffffffffffffffffffffffffffffff1673ffffffffffffffffffffffffffffffffffffffff16815260200190815260200160002060008373ffffffffffffffffffffffffffffffffffffffff1673ffffffffffffffffffffffffffffffffffffffff16815260200190815260200160002060009054906101000a900460ff16905092915050565b611ca7611eb1565b73ffffffffffffffffffffffffffffffffffffffff16611cc561146f565b73ffffffffffffffffffffffffffffffffffffffff1614611d4e576040517f08c379a00000000000000000000000000000000000000000000000000000000081526004018080602001828103825260208152602001807f4f776e61626c653a2063616c6c6572206973206e6f7420746865206f776e657281525060200191505060405180910390fd5b600073ffffffffffffffffffffffffffffffffffffffff168173ffffffffffffffffffffffffffffffffffffffff161415611dd4576040517f08c379a00000000000000000000000000000000000000000000000000000000081526004018080602001828103825260268152602001806133ed6026913960400191505060405180910390fd5b8073ffffffffffffffffffffffffffffffffffffffff16600a60009054906101000a900473ffffffffffffffffffffffffffffffffffffffff1673ffffffffffffffffffffffffffffffffffffffff167f8be0079c531659141344cd1fd0a4f28419497f9722a3daafe3b4186f6b6457e060405160405180910390a380600a60006101000a81548173ffffffffffffffffffffffffffffffffffffffff021916908373ffffffffffffffffffffffffffffffffffffffff16021790555050565b6000611eaa8260026126a790919063ffffffff16565b9050919050565b600033905090565b816004600083815260200190815260200160002060006101000a81548173ffffffffffffffffffffffffffffffffffffffff021916908373ffffffffffffffffffffffffffffffffffffffff160217905550808273ffffffffffffffffffffffffffffffffffffffff16611f2c83611151565b73ffffffffffffffffffffffffffffffffffffffff167f8c5be1e5ebec7d5bd14f71427d1e84f3dd0314c0f7b2291e5b200ac8c7c3b92560405160405180910390a45050565b611f8c8282604051806020016040528060008152506126c1565b5050565b6000611f9e82600001612732565b9050919050565b6000611fb082611e94565b612005576040517f08c379a000000000000000000000000000000000000000000000000000000000815260040180806020018281038252602c81526020018061345d602c913960400191505060405180910390fd5b600061201083611151565b90508073ffffffffffffffffffffffffffffffffffffffff168473ffffffffffffffffffffffffffffffffffffffff16148061207f57508373ffffffffffffffffffffffffffffffffffffffff1661206784610d2b565b73ffffffffffffffffffffffffffffffffffffffff16145b80612090575061208f8185611c0b565b5b91505092915050565b8273ffffffffffffffffffffffffffffffffffffffff166120b982611151565b73ffffffffffffffffffffffffffffffffffffffff1614612125576040517f08c379a00000000000000000000000000000000000000000000000000000000081526004018080602001828103825260298152602001806135d06029913960400191505060405180910390fd5b600073ffffffffffffffffffffffffffffffffffffffff168273ffffffffffffffffffffffffffffffffffffffff1614156121ab576040517f08c379a00000000000000000000000000000000000000000000000000000000081526004018080602001828103825260248152602001806134136024913960400191505060405180910390fd5b6121b6838383612743565b6121c1600082611eb9565b61221281600160008673ffffffffffffffffffffffffffffffffffffffff1673ffffffffffffffffffffffffffffffffffffffff16815260200190815260200160002061274890919063ffffffff16565b5061226481600160008573ffffffffffffffffffffffffffffffffffffffff1673ffffffffffffffffffffffffffffffffffffffff16815260200190815260200160002061276290919063ffffffff16565b5061227b8183600261277c9092919063ffffffff16565b50808273ffffffffffffffffffffffffffffffffffffffff168473ffffffffffffffffffffffffffffffffffffffff167fddf252ad1be2c89b69c2b068fc378daa952ba7f163c4a11628f55a4df523b3ef60405160405180910390a4505050565b60006122eb83600001836127b1565b60001c905092915050565b6000806000806123098660000186612834565b915091508160001c8160001c9350935050509250929050565b6000612335846000018460001b846128cd565b60001c90509392505050565b600061234f826000016129c3565b9050919050565b6000808284019050838110156123d4576040517f08c379a000000000000000000000000000000000000000000000000000000000815260040180806020018281038252601b8152602001807f536166654d6174683a206164646974696f6e206f766572666c6f77000000000081525060200191505060405180910390fd5b8091505092915050565b6000808314156123f1576000905061245e565b600082840290508284828161240257fe5b0414612459576040517f08c379a00000000000000000000000000000000000000000000000000000000081526004018080602001828103825260218152602001806135576021913960400191505060405180910390fd5b809150505b92915050565b61246f848484612099565b61247b848484846129d4565b6124d0576040517f08c379a00000000000000000000000000000000000000000000000000000000081526004018080602001828103825260328152602001806133bb6032913960400191505060405180910390fd5b50505050565b6060600082141561251e576040518060400160405280600181526020017f30000000000000000000000000000000000000000000000000000000000000008152509050612618565b600082905060005b60008214612548578080600101915050600a828161254057fe5b049150612526565b60608167ffffffffffffffff8111801561256157600080fd5b506040519080825280601f01601f1916602001820160405280156125945781602001600182028036833780820191505090505b50905060006001830390508593505b6000841461261057600a84816125b557fe5b0660300160f81b828280600190039350815181106125cf57fe5b60200101907effffffffffffffffffffffffffffffffffffffffffffffffffffffffffffff1916908160001a905350600a848161260857fe5b0493506125a3565b819450505050505b919050565b61262682611e94565b61267b576040517f08c379a000000000000000000000000000000000000000000000000000000000815260040180806020018281038252602c8152602001806135a4602c913960400191505060405180910390fd5b806008600084815260200190815260200160002090805190602001906126a29291906132fb565b505050565b60006126b9836000018360001b612bed565b905092915050565b6126cb8383612c10565b6126d860008484846129d4565b61272d576040517f08c379a00000000000000000000000000000000000000000000000000000000081526004018080602001828103825260328152602001806133bb6032913960400191505060405180910390fd5b505050565b600081600001805490509050919050565b505050565b600061275a836000018360001b612e04565b905092915050565b6000612774836000018360001b612eec565b905092915050565b60006127a8846000018460001b8473ffffffffffffffffffffffffffffffffffffffff1660001b612f5c565b90509392505050565b600081836000018054905011612812576040517f08c379a00000000000000000000000000000000000000000000000000000000081526004018080602001828103825260228152602001806133996022913960400191505060405180910390fd5b82600001828154811061282157fe5b9060005260206000200154905092915050565b60008082846000018054905011612896576040517f08c379a00000000000000000000000000000000000000000000000000000000081526004018080602001828103825260228152602001806135356022913960400191505060405180910390fd5b60008460000184815481106128a757fe5b906000526020600020906002020190508060000154816001015492509250509250929050565b60008084600101600085815260200190815260200160002054905060008114158390612994576040517f08c379a00000000000000000000000000000000000000000000000000000000081526004018080602001828103825283818151815260200191508051906020019080838360005b8381101561295957808201518184015260208101905061293e565b50505050905090810190601f1680156129865780820380516001836020036101000a031916815260200191505b509250505060405180910390fd5b508460000160018203815481106129a757fe5b9060005260206000209060020201600101549150509392505050565b600081600001805490509050919050565b60006129f58473ffffffffffffffffffffffffffffffffffffffff16613038565b612a025760019050612be5565b6060612b6c63150b7a0260e01b612a17611eb1565b888787604051602401808573ffffffffffffffffffffffffffffffffffffffff1681526020018473ffffffffffffffffffffffffffffffffffffffff16815260200183815260200180602001828103825283818151815260200191508051906020019080838360005b83811015612a9b578082015181840152602081019050612a80565b50505050905090810190601f168015612ac85780820380516001836020036101000a031916815260200191505b5095505050505050604051602081830303815290604052907bffffffffffffffffffffffffffffffffffffffffffffffffffffffff19166020820180517bffffffffffffffffffffffffffffffffffffffffffffffffffffffff83818316178352505050506040518060600160405280603281526020016133bb603291398773ffffffffffffffffffffffffffffffffffffffff1661304b9092919063ffffffff16565b90506000818060200190516020811015612b8557600080fd5b8101908080519060200190929190505050905063150b7a0260e01b7bffffffffffffffffffffffffffffffffffffffffffffffffffffffff1916817bffffffffffffffffffffffffffffffffffffffffffffffffffffffff191614925050505b949350505050565b600080836001016000848152602001908152602001600020541415905092915050565b600073ffffffffffffffffffffffffffffffffffffffff168273ffffffffffffffffffffffffffffffffffffffff161415612cb3576040517f08c379a00000000000000000000000000000000000000000000000000000000081526004018080602001828103825260208152602001807f4552433732313a206d696e7420746f20746865207a65726f206164647265737381525060200191505060405180910390fd5b612cbc81611e94565b15612d2f576040517f08c379a000000000000000000000000000000000000000000000000000000000815260040180806020018281038252601c8152602001807f4552433732313a20746f6b656e20616c7265616479206d696e7465640000000081525060200191505060405180910390fd5b612d3b60008383612743565b612d8c81600160008573ffffffffffffffffffffffffffffffffffffffff1673ffffffffffffffffffffffffffffffffffffffff16815260200190815260200160002061276290919063ffffffff16565b50612da38183600261277c9092919063ffffffff16565b50808273ffffffffffffffffffffffffffffffffffffffff16600073ffffffffffffffffffffffffffffffffffffffff167fddf252ad1be2c89b69c2b068fc378daa952ba7f163c4a11628f55a4df523b3ef60405160405180910390a45050565b60008083600101600084815260200190815260200160002054905060008114612ee05760006001820390506000600186600001805490500390506000866000018281548110612e4f57fe5b9060005260206000200154905080876000018481548110612e6c57fe5b9060005260206000200181905550600183018760010160008381526020019081526020016000208190555086600001805480612ea457fe5b60019003818190600052602060002001600090559055866001016000878152602001908152602001600020600090556001945050505050612ee6565b60009150505b92915050565b6000612ef88383613063565b612f51578260000182908060018154018082558091505060019003906000526020600020016000909190919091505582600001805490508360010160008481526020019081526020016000208190555060019050612f56565b600090505b92915050565b600080846001016000858152602001908152602001600020549050600081141561300357846000016040518060400160405280868152602001858152509080600181540180825580915050600190039060005260206000209060020201600090919091909150600082015181600001556020820151816001015550508460000180549050856001016000868152602001908152602001600020819055506001915050613031565b8285600001600183038154811061301657fe5b90600052602060002090600202016001018190555060009150505b9392505050565b600080823b905060008111915050919050565b606061305a8484600085613086565b90509392505050565b600080836001016000848152602001908152602001600020541415905092915050565b6060824710156130e1576040517f08c379a00000000000000000000000000000000000000000000000000000000081526004018080602001828103825260268152602001806134376026913960400191505060405180910390fd5b6130ea85613038565b61315c576040517f08c379a000000000000000000000000000000000000000000000000000000000815260040180806020018281038252601d8152602001807f416464726573733a2063616c6c20746f206e6f6e2d636f6e747261637400000081525060200191505060405180910390fd5b600060608673ffffffffffffffffffffffffffffffffffffffff1685876040518082805190602001908083835b602083106131ac5780518252602082019150602081019050602083039250613189565b6001836020036101000a03801982511681845116808217855250505050505090500191505060006040518083038185875af1925050503d806000811461320e576040519150601f19603f3d011682016040523d82523d6000602084013e613213565b606091505b509150915061322382828661322f565b92505050949350505050565b6060831561323f578290506132f4565b6000835111156132525782518084602001fd5b816040517f08c379a00000000000000000000000000000000000000000000000000000000081526004018080602001828103825283818151815260200191508051906020019080838360005b838110156132b957808201518184015260208101905061329e565b50505050905090810190601f1680156132e65780820380516001836020036101000a031916815260200191505b509250505060405180910390fd5b9392505050565b828054600181600116156101000203166002900490600052602060002090601f016020900481019282601f1061333c57805160ff191683800117855561336a565b8280016001018555821561336a579182015b8281111561336957825182559160200191906001019061334e565b5b509050613377919061337b565b5090565b5b8082111561339457600081600090555060010161337c565b509056fe456e756d657261626c655365743a20696e646578206f7574206f6620626f756e64734552433732313a207472616e7366657220746f206e6f6e20455243373231526563656976657220696d706c656d656e7465724f776e61626c653a206e6577206f776e657220697320746865207a65726f20616464726573734552433732313a207472616e7366657220746f20746865207a65726f2061646472657373416464726573733a20696e73756666696369656e742062616c616e636520666f722063616c6c4552433732313a206f70657261746f7220717565727920666f72206e6f6e6578697374656e7420746f6b656e43616e206f6e6c79206d696e7420333020746f6b656e7320617420612074696d654552433732313a20617070726f76652063616c6c6572206973206e6f74206f776e6572206e6f7220617070726f76656420666f7220616c6c4552433732313a2062616c616e636520717565727920666f7220746865207a65726f20616464726573734552433732313a206f776e657220717565727920666f72206e6f6e6578697374656e7420746f6b656e456e756d657261626c654d61703a20696e646578206f7574206f6620626f756e6473536166654d6174683a206d756c7469706c69636174696f6e206f766572666c6f774552433732313a20617070726f76656420717565727920666f72206e6f6e6578697374656e7420746f6b656e4552433732314d657461646174613a2055524920736574206f66206e6f6e6578697374656e7420746f6b656e4552433732313a207472616e73666572206f6620746f6b656e2074686174206973206e6f74206f776e4552433732314d657461646174613a2055524920717565727920666f72206e6f6e6578697374656e7420746f6b656e4552433732313a20617070726f76616c20746f2063757272656e74206f776e65724552433732313a207472616e736665722063616c6c6572206973206e6f74206f776e6572206e6f7220617070726f766564507572636861736520776f756c6420657863656564206d617820737570706c79206f6620417374726fa264697066735822122009606fb2c1d240bf3a19e8670b29cc34e9c4fa60477e04157f03716d558e8ea364736f6c63430007000033",
  "linkReferences": {},
  "deployedLinkReferences": {}
}